{
  "contractName": "Commit",
  "abi": [
    {
      "inputs": [],
      "payable": false,
      "stateMutability": "nonpayable",
      "type": "constructor"
    },
    {
      "anonymous": false,
      "inputs": [
        {
          "indexed": false,
          "internalType": "bytes32",
          "name": "commitment",
          "type": "bytes32"
        },
        {
          "indexed": false,
          "internalType": "uint256",
          "name": "blockNumber",
          "type": "uint256"
        },
        {
          "indexed": false,
          "internalType": "uint256",
          "name": "index",
          "type": "uint256"
        }
      ],
      "name": "TransactionCommit",
      "type": "event"
    },
    {
      "constant": true,
      "inputs": [
        {
          "internalType": "uint256",
          "name": "",
          "type": "uint256"
        },
        {
          "internalType": "uint256",
          "name": "",
          "type": "uint256"
        }
      ],
      "name": "Commitments",
      "outputs": [
        {
          "internalType": "bytes32",
          "name": "",
          "type": "bytes32"
        }
      ],
      "payable": false,
      "stateMutability": "view",
      "type": "function"
    },
    {
      "constant": true,
      "inputs": [
        {
          "internalType": "uint256",
          "name": "",
          "type": "uint256"
        }
      ],
      "name": "length",
      "outputs": [
        {
          "internalType": "uint256",
          "name": "",
          "type": "uint256"
        }
      ],
      "payable": false,
      "stateMutability": "view",
      "type": "function"
    },
    {
      "constant": false,
      "inputs": [
        {
          "internalType": "bytes",
          "name": "transaction",
          "type": "bytes"
        },
        {
          "internalType": "uint256",
          "name": "blockNumber",
          "type": "uint256"
        }
      ],
      "name": "makeCommitment",
      "outputs": [],
      "payable": true,
      "stateMutability": "payable",
      "type": "function"
    },
    {
      "constant": false,
      "inputs": [
        {
          "internalType": "uint256",
          "name": "blockNumber",
          "type": "uint256"
        },
        {
          "internalType": "uint256",
          "name": "index",
          "type": "uint256"
        }
      ],
      "name": "getCommitment",
      "outputs": [
        {
          "internalType": "bytes32",
          "name": "",
          "type": "bytes32"
        }
      ],
      "payable": false,
      "stateMutability": "nonpayable",
      "type": "function"
    }
  ],
  "bytecode": "0x608060405234801561001057600080fd5b506104a1806100206000396000f3fe60806040526004361061003f5760003560e01c80637164f0d6146100445780639cfa6c281461009d578063aa8b99d2146100f6578063db96c83a14610145575b600080fd5b34801561005057600080fd5b506100876004803603604081101561006757600080fd5b81019080803590602001909291908035906020019092919050505061020a565b6040518082815260200191505060405180910390f35b3480156100a957600080fd5b506100e0600480360360408110156100c057600080fd5b810190808035906020019092919080359060200190929190505050610238565b6040518082815260200191505060405180910390f35b34801561010257600080fd5b5061012f6004803603602081101561011957600080fd5b810190808035906020019092919050505061025d565b6040518082815260200191505060405180910390f35b6102086004803603604081101561015b57600080fd5b810190808035906020019064010000000081111561017857600080fd5b82018360208201111561018a57600080fd5b803590602001918460018302840111640100000000831117156101ac57600080fd5b91908080601f016020809104026020016040519081016040528093929190818152602001838380828437600081840152601f19601f82011690508083019250505050505050919291929080359060200190929190505050610275565b005b6000806000848152602001908152602001600020600083815260200190815260200160002054905092915050565b6000602052816000526040600020602052806000526040600020600091509150505481565b60016020528060005260406000206000915090505481565b8043106102ea576040517f08c379a000000000000000000000000000000000000000000000000000000000815260040180806020018281038252601f8152602001807f43616e206f6e6c7920636f6d6d697420746f2066757475726520626c6f636b0081525060200191505060405180910390fd5b60003411610360576040517f08c379a000000000000000000000000000000000000000000000000000000000815260040180806020018281038252600b8152602001807f506179206761732066656500000000000000000000000000000000000000000081525060200191505060405180910390fd5b60006001600083815260200190815260200160002054905060018101600160008481526020019081526020016000208190555060608184846040516020018084815260200183805190602001908083835b602083106103d457805182526020820191506020810190506020830392506103b1565b6001836020036101000a038019825116818451168082178552505050505050905001828152602001935050505060405160208183030381529060405290506000818051906020012090507f3e84f3c16e444550d5b58e5baa5d1748e4fcac8473e79fa3f824326a6eb627bb81858560405180848152602001838152602001828152602001935050505060405180910390a1505050505056fea265627a7a72315820a23b038415baa61b1bb242f96e8e219d719cd1b9b16298058f2bf8e100001a9c64736f6c63430005100032",
  "source": "// SPDX-License-Identifier: MIT\npragma solidity >=0.4.22 <0.9.0;\n\ncontract Commit {\n  // block number => (index => commitHash)\n  mapping (uint => mapping(uint => bytes32)) public Commitments;\n  // block number => (length of commitment)\n  mapping (uint => uint) public length;\n\n  event TransactionCommit(bytes32 commitment, uint blockNumber, uint index);\n\n  constructor() public {\n  }\n\n  function makeCommitment (bytes memory transaction, uint blockNumber) public payable {\n    // Could adding more requirements to control the structures\n    require(block.number < blockNumber, \"Can only commit to future block\");\n    require(msg.value > 0, \"Pay gas fee\");\n\n    // Make commitment\n    uint index = length[blockNumber]; //default is 0\n    length[blockNumber] = index + 1; // increment\n\n    // Simple commitment, could consider putting previous commitment to make it like a chain\n    bytes memory package =\n    abi.encodePacked(\n      index, // index of commitment in the storage\n      transaction, // encrypted transactions\n      blockNumber  // block number\n    );\n    bytes32 commitment = keccak256(package);\n\n    emit TransactionCommit(commitment, blockNumber, index);\n  }\n\n  // get commitment\n  function getCommitment(uint blockNumber, uint index) public returns (bytes32) {\n    return Commitments[blockNumber][index];\n  }\n}\n",
  "sourcePath": "/Users/zbh/FrontRunning/FR/contracts/Commit.sol",
  "compiler": {
    "name": "solc",
    "version": "0.5.16+commit.9c3226ce.Emscripten.clang"
  },
  "schemaVersion": "3.4.1",
  "updatedAt": "2021-08-13T02:09:02.909Z",
  "devdoc": {
    "methods": {}
  },
  "userdoc": {
    "methods": {}
  }
}