{
  "contractName": "Commit",
  "abi": [
    {
      "inputs": [],
      "payable": false,
      "stateMutability": "nonpayable",
      "type": "constructor"
    },
    {
      "anonymous": false,
      "inputs": [
        {
          "indexed": false,
          "internalType": "bytes32",
          "name": "commitment",
          "type": "bytes32"
        },
        {
          "indexed": false,
          "internalType": "uint256",
          "name": "blockNumber",
          "type": "uint256"
        },
        {
          "indexed": false,
          "internalType": "uint256",
          "name": "index",
          "type": "uint256"
        }
      ],
      "name": "TransactionCommit",
      "type": "event"
    },
    {
      "constant": true,
      "inputs": [
        {
          "internalType": "uint256",
          "name": "",
          "type": "uint256"
        },
        {
          "internalType": "uint256",
          "name": "",
          "type": "uint256"
        }
      ],
      "name": "Commitments",
      "outputs": [
        {
          "internalType": "bytes32",
          "name": "",
          "type": "bytes32"
        }
      ],
      "payable": false,
      "stateMutability": "view",
      "type": "function"
    },
    {
      "constant": true,
      "inputs": [
        {
          "internalType": "uint256",
          "name": "",
          "type": "uint256"
        }
      ],
      "name": "length",
      "outputs": [
        {
          "internalType": "uint256",
          "name": "",
          "type": "uint256"
        }
      ],
      "payable": false,
      "stateMutability": "view",
      "type": "function"
    },
    {
      "constant": false,
      "inputs": [
        {
          "internalType": "bytes",
          "name": "transaction",
          "type": "bytes"
        },
        {
          "internalType": "bytes32",
          "name": "commitment",
          "type": "bytes32"
        },
        {
          "internalType": "uint256",
          "name": "blockNumber",
          "type": "uint256"
        }
      ],
      "name": "makeCommitment",
      "outputs": [],
      "payable": true,
      "stateMutability": "payable",
      "type": "function"
    },
    {
      "constant": true,
      "inputs": [
        {
          "internalType": "uint256",
          "name": "blockNumber",
          "type": "uint256"
        },
        {
          "internalType": "uint256",
          "name": "index",
          "type": "uint256"
        }
      ],
      "name": "getCommitment",
      "outputs": [
        {
          "internalType": "bytes32",
          "name": "",
          "type": "bytes32"
        }
      ],
      "payable": false,
      "stateMutability": "view",
      "type": "function"
    },
    {
      "constant": true,
      "inputs": [
        {
          "internalType": "uint256",
          "name": "blockNUmber",
          "type": "uint256"
        }
      ],
      "name": "getLength",
      "outputs": [
        {
          "internalType": "uint256",
          "name": "",
          "type": "uint256"
        }
      ],
      "payable": false,
      "stateMutability": "view",
      "type": "function"
    }
  ],
  "bytecode": "0x608060405234801561001057600080fd5b506104be806100206000396000f3fe60806040526004361061004a5760003560e01c80630986e6471461004f5780637164f0d61461009e578063743bd3c2146100f75780639cfa6c28146101c6578063aa8b99d21461021f575b600080fd5b34801561005b57600080fd5b506100886004803603602081101561007257600080fd5b810190808035906020019092919050505061026e565b6040518082815260200191505060405180910390f35b3480156100aa57600080fd5b506100e1600480360360408110156100c157600080fd5b81019080803590602001909291908035906020019092919050505061028b565b6040518082815260200191505060405180910390f35b6101c46004803603606081101561010d57600080fd5b810190808035906020019064010000000081111561012a57600080fd5b82018360208201111561013c57600080fd5b8035906020019184600183028401116401000000008311171561015e57600080fd5b91908080601f016020809104026020016040519081016040528093929190818152602001838380828437600081840152601f19601f82011690508083019250505050505050919291929080359060200190929190803590602001909291905050506102b9565b005b3480156101d257600080fd5b50610209600480360360408110156101e957600080fd5b81019080803590602001909291908035906020019092919050505061044c565b6040518082815260200191505060405180910390f35b34801561022b57600080fd5b506102586004803603602081101561024257600080fd5b8101908080359060200190929190505050610471565b6040518082815260200191505060405180910390f35b600060016000838152602001908152602001600020549050919050565b6000806000848152602001908152602001600020600083815260200190815260200160002054905092915050565b80431061032e576040517f08c379a000000000000000000000000000000000000000000000000000000000815260040180806020018281038252601f8152602001807f43616e206f6e6c7920636f6d6d697420746f2066757475726520626c6f636b0081525060200191505060405180910390fd5b600034116103a4576040517f08c379a000000000000000000000000000000000000000000000000000000000815260040180806020018281038252600b8152602001807f506179206761732066656500000000000000000000000000000000000000000081525060200191505060405180910390fd5b600060016000838152602001908152602001600020549050600181016001600084815260200190815260200160002081905550826000808481526020019081526020016000206000838152602001908152602001600020819055507f3e84f3c16e444550d5b58e5baa5d1748e4fcac8473e79fa3f824326a6eb627bb83838360405180848152602001838152602001828152602001935050505060405180910390a150505050565b6000602052816000526040600020602052806000526040600020600091509150505481565b6001602052806000526040600020600091509050548156fea265627a7a723158200c7dc41140e135ffade73f18ecb9977518b6f6afa247ba2b33bb977ecd65238964736f6c63430005100032",
  "source": "// SPDX-License-Identifier: MIT\npragma solidity >=0.4.22 <0.9.0;\n\ncontract Commit {\n  // block number => (index => commitHash)\n  mapping (uint => mapping(uint => bytes32)) public Commitments;\n  // block number => (length of commitment)\n  mapping (uint => uint) public length;\n\n  event TransactionCommit(bytes32 commitment, uint blockNumber, uint index);\n\n  constructor() public {\n  }\n  // Users' commitment should be the hash of plain message\n  function makeCommitment (bytes memory transaction, bytes32 commitment ,uint blockNumber) public payable {\n    // Could adding more requirements to control the structures\n    require(block.number < blockNumber, \"Can only commit to future block\");\n    require(msg.value > 0, \"Pay gas fee\");\n\n    // Make commitment\n    uint index = length[blockNumber]; //default is 0\n    length[blockNumber] = index + 1; // increment\n\n    // Simple commitment, could consider putting previous commitment to make it like a chain\n    //bytes memory package =\n    //abi.encodePacked(\n    //  index, // index of commitment in the storage\n    //  transaction, // encrypted transactions\n    //  blockNumber  // block number\n    //);\n    //bytes32 commitment = keccak256(package);\n\n    Commitments[blockNumber][index] = commitment;\n\n    emit TransactionCommit(commitment, blockNumber, index);\n  }\n\n  // get commitment\n  function getCommitment(uint blockNumber, uint index) public view returns (bytes32) {\n    return Commitments[blockNumber][index];\n  }\n\n  function getLength(uint blockNUmber) public view returns (uint) {\n    return length[blockNUmber];\n  }\n}\n",
  "sourcePath": "/Users/zbh/FrontRunning/FR/contracts/Commit.sol",
  "compiler": {
    "name": "solc",
    "version": "0.5.16+commit.9c3226ce.Emscripten.clang"
  },
  "schemaVersion": "3.4.1",
  "updatedAt": "2021-08-20T12:50:24.613Z",
  "devdoc": {
    "methods": {}
  },
  "userdoc": {
    "methods": {}
  }
}