{
  "contractName": "Commit",
  "abi": [
    {
      "inputs": [],
      "payable": false,
      "stateMutability": "nonpayable",
      "type": "constructor"
    },
    {
      "anonymous": false,
      "inputs": [
        {
          "indexed": false,
          "internalType": "bytes",
          "name": "EncryptedTX",
          "type": "bytes"
        },
        {
          "indexed": false,
          "internalType": "string",
          "name": "rand",
          "type": "string"
        },
        {
          "indexed": false,
          "internalType": "uint256",
          "name": "blockNumber",
          "type": "uint256"
        },
        {
          "indexed": false,
          "internalType": "uint256",
          "name": "index",
          "type": "uint256"
        }
      ],
      "name": "TransactionCommit",
      "type": "event"
    },
    {
      "constant": true,
      "inputs": [
        {
          "internalType": "uint256",
          "name": "",
          "type": "uint256"
        },
        {
          "internalType": "uint256",
          "name": "",
          "type": "uint256"
        }
      ],
      "name": "Commitments",
      "outputs": [
        {
          "internalType": "bytes32",
          "name": "",
          "type": "bytes32"
        }
      ],
      "payable": false,
      "stateMutability": "view",
      "type": "function"
    },
    {
      "constant": true,
      "inputs": [
        {
          "internalType": "uint256",
          "name": "",
          "type": "uint256"
        }
      ],
      "name": "length",
      "outputs": [
        {
          "internalType": "uint256",
          "name": "",
          "type": "uint256"
        }
      ],
      "payable": false,
      "stateMutability": "view",
      "type": "function"
    },
    {
      "constant": false,
      "inputs": [
        {
          "internalType": "bytes",
          "name": "EncryptedTX",
          "type": "bytes"
        },
        {
          "internalType": "string",
          "name": "rand",
          "type": "string"
        },
        {
          "internalType": "bytes32",
          "name": "commitment",
          "type": "bytes32"
        },
        {
          "internalType": "uint256",
          "name": "blockNumber",
          "type": "uint256"
        }
      ],
      "name": "makeCommitment",
      "outputs": [],
      "payable": true,
      "stateMutability": "payable",
      "type": "function"
    },
    {
      "constant": true,
      "inputs": [
        {
          "internalType": "uint256",
          "name": "blockNumber",
          "type": "uint256"
        },
        {
          "internalType": "uint256",
          "name": "index",
          "type": "uint256"
        }
      ],
      "name": "getCommitment",
      "outputs": [
        {
          "internalType": "bytes32",
          "name": "",
          "type": "bytes32"
        }
      ],
      "payable": false,
      "stateMutability": "view",
      "type": "function"
    },
    {
      "constant": true,
      "inputs": [
        {
          "internalType": "uint256",
          "name": "blockNUmber",
          "type": "uint256"
        }
      ],
      "name": "getLength",
      "outputs": [
        {
          "internalType": "uint256",
          "name": "",
          "type": "uint256"
        }
      ],
      "payable": false,
      "stateMutability": "view",
      "type": "function"
    }
  ],
  "bytecode": "0x608060405234801561001057600080fd5b50610628806100206000396000f3fe60806040526004361061004a5760003560e01c80630986e6471461004f5780633e4e53271461009e5780637164f0d6146102045780639cfa6c281461025d578063aa8b99d2146102b6575b600080fd5b34801561005b57600080fd5b506100886004803603602081101561007257600080fd5b8101908080359060200190929190505050610305565b6040518082815260200191505060405180910390f35b610202600480360360808110156100b457600080fd5b81019080803590602001906401000000008111156100d157600080fd5b8201836020820111156100e357600080fd5b8035906020019184600183028401116401000000008311171561010557600080fd5b91908080601f016020809104026020016040519081016040528093929190818152602001838380828437600081840152601f19601f8201169050808301925050505050505091929192908035906020019064010000000081111561016857600080fd5b82018360208201111561017a57600080fd5b8035906020019184600183028401116401000000008311171561019c57600080fd5b91908080601f016020809104026020016040519081016040528093929190818152602001838380828437600081840152601f19601f8201169050808301925050505050505091929192908035906020019092919080359060200190929190505050610322565b005b34801561021057600080fd5b506102476004803603604081101561022757600080fd5b810190808035906020019092919080359060200190929190505050610588565b6040518082815260200191505060405180910390f35b34801561026957600080fd5b506102a06004803603604081101561028057600080fd5b8101908080359060200190929190803590602001909291905050506105b6565b6040518082815260200191505060405180910390f35b3480156102c257600080fd5b506102ef600480360360208110156102d957600080fd5b81019080803590602001909291905050506105db565b6040518082815260200191505060405180910390f35b600060016000838152602001908152602001600020549050919050565b804310610397576040517f08c379a000000000000000000000000000000000000000000000000000000000815260040180806020018281038252601f8152602001807f43616e206f6e6c7920636f6d6d697420746f2066757475726520626c6f636b0081525060200191505060405180910390fd5b6000341161040d576040517f08c379a000000000000000000000000000000000000000000000000000000000815260040180806020018281038252600b8152602001807f506179206761732066656500000000000000000000000000000000000000000081525060200191505060405180910390fd5b600060016000838152602001908152602001600020549050600181016001600084815260200190815260200160002081905550826000808481526020019081526020016000206000838152602001908152602001600020819055507fa71201fe6c63201130bd93db8d26446e221f10a3cfd932fcdbebcacb4196653885858484604051808060200180602001858152602001848152602001838103835287818151815260200191508051906020019080838360005b838110156104dd5780820151818401526020810190506104c2565b50505050905090810190601f16801561050a5780820380516001836020036101000a031916815260200191505b50838103825286818151815260200191508051906020019080838360005b83811015610543578082015181840152602081019050610528565b50505050905090810190601f1680156105705780820380516001836020036101000a031916815260200191505b50965050505050505060405180910390a15050505050565b6000806000848152602001908152602001600020600083815260200190815260200160002054905092915050565b6000602052816000526040600020602052806000526040600020600091509150505481565b6001602052806000526040600020600091509050548156fea265627a7a72315820bf58fd8c8f9f31beea1bb05315f2c23e075a8669c5839c9224bd74f96c039d0c64736f6c63430005100032",
  "source": "// SPDX-License-Identifier: MIT\npragma solidity >=0.4.22 <0.9.0;\n\ncontract Commit {\n  // block number => (index => commitHash)\n  mapping (uint => mapping(uint => bytes32)) public Commitments;\n  // block number => (length of commitment)\n  mapping (uint => uint) public length;\n\n  event TransactionCommit(bytes EncryptedTX, string rand, uint blockNumber, uint index);\n\n  constructor() public {\n  }\n  // Users' commitment should be the hash of plain message\n  function makeCommitment (bytes memory EncryptedTX, string memory rand, bytes32 commitment ,uint blockNumber) public payable {\n    // Could adding more requirements to control the structures\n    require(block.number < blockNumber, \"Can only commit to future block\");\n    require(msg.value > 0, \"Pay gas fee\");\n\n    // Make commitment\n    uint index = length[blockNumber]; //default is 0\n    length[blockNumber] = index + 1; // increment\n    Commitments[blockNumber][index] = commitment;\n    emit TransactionCommit(EncryptedTX, rand, blockNumber, index);\n  }\n\n  // get commitment\n  function getCommitment(uint blockNumber, uint index) public view returns (bytes32) {\n    return Commitments[blockNumber][index];\n  }\n\n  function getLength(uint blockNUmber) public view returns (uint) {\n    return length[blockNUmber];\n  }\n}\n",
  "sourcePath": "/Users/zbh/FrontRunning/FR/contracts/Commit.sol",
  "compiler": {
    "name": "solc",
    "version": "0.5.16+commit.9c3226ce.Emscripten.clang"
  },
  "schemaVersion": "3.4.1",
  "updatedAt": "2021-08-29T17:09:54.201Z",
  "devdoc": {
    "methods": {}
  },
  "userdoc": {
    "methods": {}
  }
}