{
  "contractName": "Participate",
  "abi": [
    {
      "inputs": [],
      "payable": true,
      "stateMutability": "payable",
      "type": "constructor"
    },
    {
      "anonymous": false,
      "inputs": [
        {
          "indexed": false,
          "internalType": "address",
          "name": "_from",
          "type": "address"
        }
      ],
      "name": "Join",
      "type": "event"
    },
    {
      "anonymous": false,
      "inputs": [
        {
          "indexed": false,
          "internalType": "address",
          "name": "_from",
          "type": "address"
        }
      ],
      "name": "Leave",
      "type": "event"
    },
    {
      "constant": true,
      "inputs": [
        {
          "internalType": "address",
          "name": "",
          "type": "address"
        }
      ],
      "name": "Decrypters",
      "outputs": [
        {
          "internalType": "bool",
          "name": "",
          "type": "bool"
        }
      ],
      "payable": false,
      "stateMutability": "view",
      "type": "function"
    },
    {
      "constant": false,
      "inputs": [],
      "name": "join",
      "outputs": [],
      "payable": true,
      "stateMutability": "payable",
      "type": "function"
    },
    {
      "constant": false,
      "inputs": [],
      "name": "leave",
      "outputs": [],
      "payable": false,
      "stateMutability": "nonpayable",
      "type": "function"
    },
    {
      "constant": false,
      "inputs": [
        {
          "internalType": "address",
          "name": "addr",
          "type": "address"
        }
      ],
      "name": "contains",
      "outputs": [
        {
          "internalType": "bool",
          "name": "",
          "type": "bool"
        }
      ],
      "payable": false,
      "stateMutability": "nonpayable",
      "type": "function"
    }
  ],
  "bytecode": "0x6080604052678ac7230489e800006001819055506103fc806100226000396000f3fe60806040526004361061003f5760003560e01c80635dbe47e814610044578063b688a363146100ad578063d66d9e19146100b7578063e2317b25146100ce575b600080fd5b34801561005057600080fd5b506100936004803603602081101561006757600080fd5b81019080803573ffffffffffffffffffffffffffffffffffffffff169060200190929190505050610137565b604051808215151515815260200191505060405180910390f35b6100b561018c565b005b3480156100c357600080fd5b506100cc610270565b005b3480156100da57600080fd5b5061011d600480360360208110156100f157600080fd5b81019080803573ffffffffffffffffffffffffffffffffffffffff1690602001909291905050506103a7565b604051808215151515815260200191505060405180910390f35b60008060008373ffffffffffffffffffffffffffffffffffffffff1673ffffffffffffffffffffffffffffffffffffffff16815260200190815260200160002060009054906101000a900460ff169050919050565b6000151561019933610137565b1515146101a557600080fd5b6001543410156101b457600080fd5b60016000803373ffffffffffffffffffffffffffffffffffffffff1673ffffffffffffffffffffffffffffffffffffffff16815260200190815260200160002060006101000a81548160ff0219169083151502179055507f0764c80c4165f118547b301a0b4b91eac21bd2f2d9b61d0ac723ff0aab27bb7933604051808273ffffffffffffffffffffffffffffffffffffffff1673ffffffffffffffffffffffffffffffffffffffff16815260200191505060405180910390a1565b61027933610137565b6102eb576040517f08c379a00000000000000000000000000000000000000000000000000000000081526004018080602001828103825260178152602001807f73656e646572206e6f7420696e207468652067726f757000000000000000000081525060200191505060405180910390fd5b60008060003373ffffffffffffffffffffffffffffffffffffffff1673ffffffffffffffffffffffffffffffffffffffff16815260200190815260200160002060006101000a81548160ff0219169083151502179055507fdf56ba6c527d293b0abd197c8da0b55f4818fcdc13eaa77cc3068779b3a8740d33604051808273ffffffffffffffffffffffffffffffffffffffff1673ffffffffffffffffffffffffffffffffffffffff16815260200191505060405180910390a1565b60006020528060005260406000206000915054906101000a900460ff168156fea265627a7a7231582022222bb4a4887d5b35b41d338d7577cb38265ea89f9cba936866ac340b38569564736f6c63430005100032",
  "source": "// SPDX-License-Identifier: MIT\npragma solidity >=0.4.22 <0.9.0;\n\ncontract Participate {\n\n  mapping (address => bool) public Decrypters;\n  uint EntryFee;\n\n  event Join(address _from);\n  event Leave(address _from);\n\n  constructor() public payable {\n    EntryFee = 10e18; // Same thing as 10 ether\n  }\n\n\n  function join() payable public {\n    require(contains(msg.sender) == false); // not in the list\n    require(msg.value >= EntryFee); // enough payment\n    Decrypters[msg.sender] = true;\n    emit Join(msg.sender);\n  }\n\n\n  function leave() public {\n    require(contains(msg.sender), 'sender not in the group');\n    Decrypters[msg.sender] = false;\n    emit Leave(msg.sender);\n    // TODO; potential reward could be given.\n  }\n\n\n  function contains(address addr) public returns (bool){\n    return Decrypters[addr];\n  }\n}\n",
  "sourcePath": "/Users/zbh/FrontRunning/FR/contracts/Participate.sol",
  "compiler": {
    "name": "solc",
    "version": "0.5.16+commit.9c3226ce.Emscripten.clang"
  },
  "schemaVersion": "3.4.1",
  "updatedAt": "2021-08-29T17:09:54.215Z",
  "devdoc": {
    "methods": {}
  },
  "userdoc": {
    "methods": {}
  }
}