{
  "contractName": "Process",
  "abi": [
    {
      "inputs": [
        {
          "internalType": "contract Commit",
          "name": "CommitAddress",
          "type": "address"
        },
        {
          "internalType": "contract Participate",
          "name": "ParticipateAddress",
          "type": "address"
        }
      ],
      "payable": false,
      "stateMutability": "nonpayable",
      "type": "constructor"
    },
    {
      "anonymous": false,
      "inputs": [
        {
          "indexed": false,
          "internalType": "uint256",
          "name": "BlockNumber",
          "type": "uint256"
        },
        {
          "indexed": false,
          "internalType": "uint256",
          "name": "order",
          "type": "uint256"
        }
      ],
      "name": "ProcessFailure",
      "type": "event"
    },
    {
      "anonymous": false,
      "inputs": [
        {
          "indexed": false,
          "internalType": "uint256",
          "name": "BlockNumber",
          "type": "uint256"
        },
        {
          "indexed": false,
          "internalType": "uint256",
          "name": "order",
          "type": "uint256"
        }
      ],
      "name": "ProcessSuccess",
      "type": "event"
    },
    {
      "constant": true,
      "inputs": [
        {
          "internalType": "uint256",
          "name": "",
          "type": "uint256"
        }
      ],
      "name": "ProcessOrderList",
      "outputs": [
        {
          "internalType": "uint256",
          "name": "",
          "type": "uint256"
        }
      ],
      "payable": false,
      "stateMutability": "view",
      "type": "function"
    },
    {
      "constant": false,
      "inputs": [
        {
          "internalType": "uint256",
          "name": "BlockNumber",
          "type": "uint256"
        },
        {
          "internalType": "bytes",
          "name": "transactions",
          "type": "bytes"
        }
      ],
      "name": "executeCipherBatch",
      "outputs": [],
      "payable": false,
      "stateMutability": "nonpayable",
      "type": "function"
    }
  ],
  "bytecode": "0x608060405234801561001057600080fd5b506040516106b83803806106b88339818101604052604081101561003357600080fd5b81019080805190602001909291908051906020019092919050505081600160006101000a81548173ffffffffffffffffffffffffffffffffffffffff021916908373ffffffffffffffffffffffffffffffffffffffff16021790555080600260006101000a81548173ffffffffffffffffffffffffffffffffffffffff021916908373ffffffffffffffffffffffffffffffffffffffff16021790555050506105d7806100e16000396000f3fe608060405234801561001057600080fd5b50600436106100365760003560e01c8063aa0b3f481461003b578063d4973b0a1461007d575b600080fd5b6100676004803603602081101561005157600080fd5b8101908080359060200190929190505050610142565b6040518082815260200191505060405180910390f35b6101406004803603604081101561009357600080fd5b8101908080359060200190929190803590602001906401000000008111156100ba57600080fd5b8201836020820111156100cc57600080fd5b803590602001918460018302840111640100000000831117156100ee57600080fd5b91908080601f016020809104026020016040519081016040528093929190818152602001838380828437600081840152601f19601f82011690508083019250505050505050919291929050505061015a565b005b60006020528060005260406000206000915090505481565b6000600160009054906101000a900473ffffffffffffffffffffffffffffffffffffffff1673ffffffffffffffffffffffffffffffffffffffff16630986e647846040518263ffffffff1660e01b81526004018082815260200191505060206040518083038186803b1580156101cf57600080fd5b505afa1580156101e3573d6000803e3d6000fd5b505050506040513d60208110156101f957600080fd5b81019080805190602001909291905050509050600082805190602001209050600260009054906101000a900473ffffffffffffffffffffffffffffffffffffffff1673ffffffffffffffffffffffffffffffffffffffff16635dbe47e8336040518263ffffffff1660e01b8152600401808273ffffffffffffffffffffffffffffffffffffffff1673ffffffffffffffffffffffffffffffffffffffff168152602001915050602060405180830381600087803b1580156102b957600080fd5b505af11580156102cd573d6000803e3d6000fd5b505050506040513d60208110156102e357600080fd5b8101908080519060200190929190505050610366576040517f08c379a000000000000000000000000000000000000000000000000000000000815260040180806020018281038252601a8152602001807f4e6f7420696e2070617274696369706174696e67206c6973742e00000000000081525060200191505060405180910390fd5b8160008086815260200190815260200160002054106103d0576040517f08c379a000000000000000000000000000000000000000000000000000000000815260040180806020018281038252602981526020018061057a6029913960400191505060405180910390fd5b600160009054906101000a900473ffffffffffffffffffffffffffffffffffffffff1673ffffffffffffffffffffffffffffffffffffffff16637164f0d685600080888152602001908152602001600020546040518363ffffffff1660e01b8152600401808381526020018281526020019250505060206040518083038186803b15801561045d57600080fd5b505afa158015610471573d6000803e3d6000fd5b505050506040513d602081101561048757600080fd5b81019080805190602001909291905050508114156104f5577fd97041c4dca5582afba0d9f6a38b2a18a48e3cf3c3594b25b6d30d46c4cd390c8460008087815260200190815260200160002054604051808381526020018281526020019250505060405180910390a1610547565b7fc84c483297fc09c94aad200d64adb80671093872e468f10c04a4ab18253e44798460008087815260200190815260200160002054604051808381526020018281526020019250505060405180910390a15b60016000808681526020019081526020016000205401600080868152602001908152602001600020819055505050505056fe696e646578206f7574206f6620626c6f636b20636f6d6d69746d656e74206c6973742072616e67652ea265627a7a723158201788f48bb308c3744a02e9604dc300ada865caf807528aa78fc39ee123dbaa7464736f6c63430005100032",
  "source": "// SPDX-License-Identifier: MIT\npragma solidity >=0.4.22 <0.9.0;\n\nimport {Commit} from \"./Commit.sol\";\nimport {Participate} from \"./Participate.sol\";\n\ncontract Process {\n  // BlockNumber => which one to execute\n  mapping (uint => uint) public ProcessOrderList;\n\n  event ProcessSuccess(uint BlockNumber, uint order);\n  event ProcessFailure(uint BlockNumber, uint order);\n\n  Commit CommitContract;\n  Participate ParticipateContract;\n\n  constructor(Commit CommitAddress, Participate ParticipateAddress) public {\n    CommitContract = CommitAddress;\n    ParticipateContract = ParticipateAddress;\n  }\n\n  function executeCipherBatch(uint BlockNumber, bytes memory transactions) public {\n    uint length = CommitContract.getLength(BlockNumber);\n    bytes32 commitment = keccak256(transactions);\n\n    require(ParticipateContract.contains(msg.sender), \"Not in participating list.\");\n    require(ProcessOrderList[BlockNumber] < length, \"index out of block commitment list range.\");\n\n    if(commitment == CommitContract.getCommitment(BlockNumber, ProcessOrderList[BlockNumber])) {\n      emit ProcessSuccess(BlockNumber, ProcessOrderList[BlockNumber]);\n      // TODO Pass the transaction to target address\n    } else {\n      emit ProcessFailure(BlockNumber, ProcessOrderList[BlockNumber]);\n    }\n\n    ProcessOrderList[BlockNumber] = ProcessOrderList[BlockNumber] + 1;\n  }\n\n\n}\n",
  "sourcePath": "/Users/zbh/FrontRunning/FR/contracts/Process.sol",
  "compiler": {
    "name": "solc",
    "version": "0.5.16+commit.9c3226ce.Emscripten.clang"
  },
  "schemaVersion": "3.4.1",
  "updatedAt": "2021-08-20T12:50:24.619Z",
  "devdoc": {
    "methods": {}
  },
  "userdoc": {
    "methods": {}
  }
}