{
  "contractName": "Process",
  "abi": [
    {
      "inputs": [
        {
          "internalType": "contract Commit",
          "name": "CommitAddress",
          "type": "address"
        },
        {
          "internalType": "contract Participate",
          "name": "ParticipateAddress",
          "type": "address"
        },
        {
          "internalType": "contract HelloWorld",
          "name": "TargetAddress",
          "type": "address"
        }
      ],
      "payable": false,
      "stateMutability": "nonpayable",
      "type": "constructor"
    },
    {
      "anonymous": false,
      "inputs": [],
      "name": "ExFailure",
      "type": "event"
    },
    {
      "anonymous": false,
      "inputs": [
        {
          "indexed": false,
          "internalType": "uint256",
          "name": "BlockNumber",
          "type": "uint256"
        },
        {
          "indexed": false,
          "internalType": "uint256",
          "name": "order",
          "type": "uint256"
        }
      ],
      "name": "ProcessFailure",
      "type": "event"
    },
    {
      "anonymous": false,
      "inputs": [
        {
          "indexed": false,
          "internalType": "uint256",
          "name": "BlockNumber",
          "type": "uint256"
        },
        {
          "indexed": false,
          "internalType": "uint256",
          "name": "order",
          "type": "uint256"
        }
      ],
      "name": "ProcessSuccess",
      "type": "event"
    },
    {
      "constant": true,
      "inputs": [
        {
          "internalType": "uint256",
          "name": "",
          "type": "uint256"
        }
      ],
      "name": "ProcessOrderList",
      "outputs": [
        {
          "internalType": "uint256",
          "name": "",
          "type": "uint256"
        }
      ],
      "payable": false,
      "stateMutability": "view",
      "type": "function"
    },
    {
      "constant": false,
      "inputs": [
        {
          "internalType": "uint256",
          "name": "BlockNumber",
          "type": "uint256"
        },
        {
          "internalType": "bytes",
          "name": "transaction",
          "type": "bytes"
        },
        {
          "internalType": "string",
          "name": "rand",
          "type": "string"
        }
      ],
      "name": "executeTX",
      "outputs": [],
      "payable": false,
      "stateMutability": "nonpayable",
      "type": "function"
    }
  ],
  "bytecode": "0x608060405234801561001057600080fd5b50604051610aa5380380610aa58339818101604052606081101561003357600080fd5b8101908080519060200190929190805190602001909291908051906020019092919050505082600160006101000a81548173ffffffffffffffffffffffffffffffffffffffff021916908373ffffffffffffffffffffffffffffffffffffffff16021790555081600260006101000a81548173ffffffffffffffffffffffffffffffffffffffff021916908373ffffffffffffffffffffffffffffffffffffffff16021790555080600360006101000a81548173ffffffffffffffffffffffffffffffffffffffff021916908373ffffffffffffffffffffffffffffffffffffffff16021790555060405180807f73617948656c6c6f282900000000000000000000000000000000000000000000815250600a0190506040518091039020600360146101000a81548163ffffffff021916908360e01c0217905550505050610925806101806000396000f3fe608060405234801561001057600080fd5b50600436106100365760003560e01c80637659cc641461003b578063aa0b3f4814610197575b600080fd5b6101956004803603606081101561005157600080fd5b81019080803590602001909291908035906020019064010000000081111561007857600080fd5b82018360208201111561008a57600080fd5b803590602001918460018302840111640100000000831117156100ac57600080fd5b91908080601f016020809104026020016040519081016040528093929190818152602001838380828437600081840152601f19601f8201169050808301925050505050505091929192908035906020019064010000000081111561010f57600080fd5b82018360208201111561012157600080fd5b8035906020019184600183028401116401000000008311171561014357600080fd5b91908080601f016020809104026020016040519081016040528093929190818152602001838380828437600081840152601f19601f8201169050808301925050505050505091929192905050506101d9565b005b6101c3600480360360208110156101ad57600080fd5b81019080803590602001909291905050506108af565b6040518082815260200191505060405180910390f35b6000600160009054906101000a900473ffffffffffffffffffffffffffffffffffffffff1673ffffffffffffffffffffffffffffffffffffffff16630986e647856040518263ffffffff1660e01b81526004018082815260200191505060206040518083038186803b15801561024e57600080fd5b505afa158015610262573d6000803e3d6000fd5b505050506040513d602081101561027857600080fd5b81019080805190602001909291905050509050600083836040516020018083805190602001908083835b602083106102c557805182526020820191506020810190506020830392506102a2565b6001836020036101000a03801982511681845116808217855250505050505090500182805190602001908083835b6020831061031657805182526020820191506020810190506020830392506102f3565b6001836020036101000a03801982511681845116808217855250505050505090500192505050604051602081830303815290604052805190602001209050600260009054906101000a900473ffffffffffffffffffffffffffffffffffffffff1673ffffffffffffffffffffffffffffffffffffffff16635dbe47e8336040518263ffffffff1660e01b8152600401808273ffffffffffffffffffffffffffffffffffffffff1673ffffffffffffffffffffffffffffffffffffffff168152602001915050602060405180830381600087803b1580156103f557600080fd5b505af1158015610409573d6000803e3d6000fd5b505050506040513d602081101561041f57600080fd5b81019080805190602001909291905050506104a2576040517f08c379a000000000000000000000000000000000000000000000000000000000815260040180806020018281038252601a8152602001807f4e6f7420696e2070617274696369706174696e67206c6973742e00000000000081525060200191505060405180910390fd5b81600080878152602001908152602001600020541061050c576040517f08c379a00000000000000000000000000000000000000000000000000000000081526004018080602001828103825260298152602001806108c86029913960400191505060405180910390fd5b600160009054906101000a900473ffffffffffffffffffffffffffffffffffffffff1673ffffffffffffffffffffffffffffffffffffffff16637164f0d686600080898152602001908152602001600020546040518363ffffffff1660e01b8152600401808381526020018281526020019250505060206040518083038186803b15801561059957600080fd5b505afa1580156105ad573d6000803e3d6000fd5b505050506040513d60208110156105c357600080fd5b810190808051906020019092919050505081141561082a577fd97041c4dca5582afba0d9f6a38b2a18a48e3cf3c3594b25b6d30d46c4cd390c8560008088815260200190815260200160002054604051808381526020018281526020019250505060405180910390a16060600360149054906101000a900460e01b856040516024018080602001828103825283818151815260200191508051906020019080838360005b83811015610682578082015181840152602081019050610667565b50505050905090810190601f1680156106af5780820380516001836020036101000a031916815260200191505b5092505050604051602081830303815290604052907bffffffffffffffffffffffffffffffffffffffffffffffffffffffff19166020820180517bffffffffffffffffffffffffffffffffffffffffffffffffffffffff8381831617835250505050905060006060600360009054906101000a900473ffffffffffffffffffffffffffffffffffffffff1673ffffffffffffffffffffffffffffffffffffffff16836040518082805190602001908083835b602083106107845780518252602082019150602081019050602083039250610761565b6001836020036101000a0380198251168184511680821785525050505050509050019150506000604051808303816000865af19150503d80600081146107e6576040519150601f19603f3d011682016040523d82523d6000602084013e6107eb565b606091505b509150915081610822577fb746e438662322eb2c89159b670594281b684fcc72c4d8f626888ffb472add0e60405160405180910390a15b50505061087c565b7fc84c483297fc09c94aad200d64adb80671093872e468f10c04a4ab18253e44798560008088815260200190815260200160002054604051808381526020018281526020019250505060405180910390a15b60016000808781526020019081526020016000205401600080878152602001908152602001600020819055505050505050565b6000602052806000526040600020600091509050548156fe696e646578206f7574206f6620626c6f636b20636f6d6d69746d656e74206c6973742072616e67652ea265627a7a723158205a1b3093a11a9ac9c9e3fde7e27a42d0399c5fe1b50c55d40478f2d002a6146364736f6c63430005100032",
  "source": "// SPDX-License-Identifier: MIT\npragma solidity >=0.4.22 <0.9.0;\n\nimport {Commit} from \"./Commit.sol\";\nimport {Participate} from \"./Participate.sol\";\nimport {HelloWorld} from \"./HelloWorld.sol\";\nimport {Commit} from \"./Commit.sol\";\n\ncontract Process {\n  // BlockNumber => which one to execute\n  mapping (uint => uint) public ProcessOrderList;\n\n  event ProcessSuccess(uint BlockNumber, uint order);\n  event ProcessFailure(uint BlockNumber, uint order);\n\n  event ExFailure();\n\n  Commit CommitContract;\n  Participate ParticipateContract;\n  HelloWorld TargetContract;\n  bytes4 FUNC_SELECTOR;\n\n  constructor(Commit CommitAddress, Participate ParticipateAddress, HelloWorld TargetAddress) public {\n    CommitContract = CommitAddress;\n    ParticipateContract = ParticipateAddress;\n    TargetContract = TargetAddress;\n    FUNC_SELECTOR = bytes4(keccak256(\"sayHello()\"));\n  }\n\n  function executeTX(uint BlockNumber, bytes memory transaction, string memory rand) public {\n    uint length = CommitContract.getLength(BlockNumber);\n    bytes32 commitment = keccak256(abi.encodePacked(transaction, rand));\n\n    require(ParticipateContract.contains(msg.sender), \"Not in participating list.\");\n    require(ProcessOrderList[BlockNumber] < length, \"index out of block commitment list range.\");\n\n    if(commitment == CommitContract.getCommitment(BlockNumber, ProcessOrderList[BlockNumber])) {\n      emit ProcessSuccess(BlockNumber, ProcessOrderList[BlockNumber]);\n      // Pass the transaction to target address\n      bytes memory data = abi.encodeWithSelector(FUNC_SELECTOR, transaction);\n      (bool success, bytes memory returnData) = address(TargetContract).call(data);\n      if (!success) {\n        emit ExFailure();\n      }\n    } else {\n      emit ProcessFailure(BlockNumber, ProcessOrderList[BlockNumber]);\n    }\n\n    ProcessOrderList[BlockNumber] = ProcessOrderList[BlockNumber] + 1;\n  }\n}\n",
  "sourcePath": "/Users/zbh/FrontRunning/FR/contracts/Process.sol",
  "compiler": {
    "name": "solc",
    "version": "0.5.16+commit.9c3226ce.Emscripten.clang"
  },
  "schemaVersion": "3.4.1",
  "updatedAt": "2021-08-29T17:09:54.220Z",
  "devdoc": {
    "methods": {}
  },
  "userdoc": {
    "methods": {}
  }
}